{
  "address": "0x5FbDB2315678afecb367f032d93F642f64180aa3",
  "abi": [
    {
      "inputs": [
        {
          "internalType": "address",
          "name": "_useraddress",
          "type": "address"
        },
        {
          "internalType": "string",
          "name": "_name",
          "type": "string"
        },
        {
          "internalType": "string",
          "name": "_dataHash",
          "type": "string"
        }
      ],
      "name": "createRecordbyDOC",
      "outputs": [],
      "stateMutability": "nonpayable",
      "type": "function"
    },
    {
      "inputs": [
        {
          "internalType": "string",
          "name": "_name",
          "type": "string"
        },
        {
          "internalType": "string",
          "name": "_dataHash",
          "type": "string"
        }
      ],
      "name": "createRecordbyowner",
      "outputs": [],
      "stateMutability": "nonpayable",
      "type": "function"
    },
    {
      "inputs": [
        {
          "internalType": "address",
          "name": "_PaAddress",
          "type": "address"
        }
      ],
      "name": "getAccessListForPatient",
      "outputs": [
        {
          "internalType": "address[]",
          "name": "",
          "type": "address[]"
        }
      ],
      "stateMutability": "view",
      "type": "function"
    },
    {
      "inputs": [],
      "name": "getPatientListForDoc",
      "outputs": [
        {
          "internalType": "address[]",
          "name": "",
          "type": "address[]"
        }
      ],
      "stateMutability": "view",
      "type": "function"
    },
    {
      "inputs": [
        {
          "internalType": "address",
          "name": "_useraddress",
          "type": "address"
        }
      ],
      "name": "getRecord",
      "outputs": [
        {
          "components": [
            {
              "internalType": "string",
              "name": "name",
              "type": "string"
            },
            {
              "internalType": "string",
              "name": "dataHash",
              "type": "string"
            },
            {
              "internalType": "address",
              "name": "owner",
              "type": "address"
            },
            {
              "internalType": "address[]",
              "name": "allowed",
              "type": "address[]"
            }
          ],
          "internalType": "struct MedicalRecords.Record[]",
          "name": "",
          "type": "tuple[]"
        }
      ],
      "stateMutability": "view",
      "type": "function"
    },
    {
      "inputs": [
        {
          "internalType": "address",
          "name": "_docAddress",
          "type": "address"
        }
      ],
      "name": "grantAccess",
      "outputs": [],
      "stateMutability": "nonpayable",
      "type": "function"
    },
    {
      "inputs": [
        {
          "internalType": "address",
          "name": "docAddress",
          "type": "address"
        }
      ],
      "name": "revokeAccess",
      "outputs": [],
      "stateMutability": "nonpayable",
      "type": "function"
    }
  ],
  "transactionHash": "0x4807c6964b829f8259779bc9ee9903f81ecc9219ad003923d017334b32b6a71c",
  "args": [],
  "numDeployments": 1,
  "solcInputHash": "98c207d14c9a184d5b82cfe5d1e91c5f",
  "bytecode": "0x608060405234801561001057600080fd5b50611e9d806100206000396000f3fe608060405234801561001057600080fd5b506004361061007d5760003560e01c8063617fba041161005b578063617fba04146100d857806385e68531146101085780638b0bf11114610124578063ce277ef3146101405761007d565b80630ae5e73914610082578063214523df1461009e5780633a289310146100bc575b600080fd5b61009c600480360381019061009791906113c0565b610170565b005b6100a66102b3565b6040516100b391906114ab565b60405180910390f35b6100d660048036038101906100d19190611613565b61037e565b005b6100f260048036038101906100ed91906113c0565b6104fb565b6040516100ff91906118ac565b60405180910390f35b610122600480360381019061011d91906113c0565b6108a1565b005b61013e600480360381019061013991906118ce565b610eee565b005b61015a600480360381019061015591906113c0565b6110b5565b60405161016791906114ab565b60405180910390f35b600160003373ffffffffffffffffffffffffffffffffffffffff1673ffffffffffffffffffffffffffffffffffffffff168152602001908152602001600020819080600181540180825580915050600190039060005260206000200160009091909190916101000a81548173ffffffffffffffffffffffffffffffffffffffff021916908373ffffffffffffffffffffffffffffffffffffffff160217905550600260008273ffffffffffffffffffffffffffffffffffffffff1673ffffffffffffffffffffffffffffffffffffffff168152602001908152602001600020339080600181540180825580915050600190039060005260206000200160009091909190916101000a81548173ffffffffffffffffffffffffffffffffffffffff021916908373ffffffffffffffffffffffffffffffffffffffff16021790555050565b6060600260003373ffffffffffffffffffffffffffffffffffffffff1673ffffffffffffffffffffffffffffffffffffffff16815260200190815260200160002080548060200260200160405190810160405280929190818152602001828054801561037457602002820191906000526020600020905b8160009054906101000a900473ffffffffffffffffffffffffffffffffffffffff1673ffffffffffffffffffffffffffffffffffffffff168152602001906001019080831161032a575b5050505050905090565b6000803373ffffffffffffffffffffffffffffffffffffffff1673ffffffffffffffffffffffffffffffffffffffff16815260200190815260200160002060405180608001604052808481526020018381526020013373ffffffffffffffffffffffffffffffffffffffff168152602001600067ffffffffffffffff81111561040a576104096114e8565b5b6040519080825280602002602001820160405280156104385781602001602082028036833780820191505090505b508152509080600181540180825580915050600190039060005260206000209060040201600090919091909150600082015181600001908161047a9190611b6f565b5060208201518160010190816104909190611b6f565b5060408201518160020160006101000a81548173ffffffffffffffffffffffffffffffffffffffff021916908373ffffffffffffffffffffffffffffffffffffffff16021790555060608201518160030190805190602001906104f49291906112a7565b5050505050565b60606105073383611182565b806105bf57506000808373ffffffffffffffffffffffffffffffffffffffff1673ffffffffffffffffffffffffffffffffffffffff16815260200190815260200160002060008154811061055e5761055d611c41565b5b906000526020600020906004020160020160009054906101000a900473ffffffffffffffffffffffffffffffffffffffff1673ffffffffffffffffffffffffffffffffffffffff163373ffffffffffffffffffffffffffffffffffffffff16145b6105fe576040517f08c379a00000000000000000000000000000000000000000000000000000000081526004016105f590611ccd565b60405180910390fd5b6000808373ffffffffffffffffffffffffffffffffffffffff1673ffffffffffffffffffffffffffffffffffffffff168152602001908152602001600020805480602002602001604051908101604052809291908181526020016000905b82821015610896578382906000526020600020906004020160405180608001604052908160008201805461068f90611988565b80601f01602080910402602001604051908101604052809291908181526020018280546106bb90611988565b80156107085780601f106106dd57610100808354040283529160200191610708565b820191906000526020600020905b8154815290600101906020018083116106eb57829003601f168201915b5050505050815260200160018201805461072190611988565b80601f016020809104026020016040519081016040528092919081815260200182805461074d90611988565b801561079a5780601f1061076f5761010080835404028352916020019161079a565b820191906000526020600020905b81548152906001019060200180831161077d57829003601f168201915b505050505081526020016002820160009054906101000a900473ffffffffffffffffffffffffffffffffffffffff1673ffffffffffffffffffffffffffffffffffffffff1673ffffffffffffffffffffffffffffffffffffffff1681526020016003820180548060200260200160405190810160405280929190818152602001828054801561087e57602002820191906000526020600020905b8160009054906101000a900473ffffffffffffffffffffffffffffffffffffffff1673ffffffffffffffffffffffffffffffffffffffff1681526020019060010190808311610834575b5050505050815250508152602001906001019061065c565b505050509050919050565b600080600091505b600160003373ffffffffffffffffffffffffffffffffffffffff1673ffffffffffffffffffffffffffffffffffffffff168152602001908152602001600020805490508210156109b5578273ffffffffffffffffffffffffffffffffffffffff16600160003373ffffffffffffffffffffffffffffffffffffffff1673ffffffffffffffffffffffffffffffffffffffff168152602001908152602001600020838154811061095b5761095a611c41565b5b9060005260206000200160009054906101000a900473ffffffffffffffffffffffffffffffffffffffff1673ffffffffffffffffffffffffffffffffffffffff1603156109b55781806109ad90611d1c565b9250506108a9565b8190505b60018060003373ffffffffffffffffffffffffffffffffffffffff1673ffffffffffffffffffffffffffffffffffffffff16815260200190815260200160002080549050610a079190611d64565b811015610b4257600160003373ffffffffffffffffffffffffffffffffffffffff1673ffffffffffffffffffffffffffffffffffffffff168152602001908152602001600020600182610a5a9190611d98565b81548110610a6b57610a6a611c41565b5b9060005260206000200160009054906101000a900473ffffffffffffffffffffffffffffffffffffffff16600160003373ffffffffffffffffffffffffffffffffffffffff1673ffffffffffffffffffffffffffffffffffffffff1681526020019081526020016000208281548110610ae757610ae6611c41565b5b9060005260206000200160006101000a81548173ffffffffffffffffffffffffffffffffffffffff021916908373ffffffffffffffffffffffffffffffffffffffff1602179055508080610b3a90611d1c565b9150506109b9565b600160003373ffffffffffffffffffffffffffffffffffffffff1673ffffffffffffffffffffffffffffffffffffffff168152602001908152602001600020805480610b9157610b90611dcc565b5b6001900381819060005260206000200160006101000a81549073ffffffffffffffffffffffffffffffffffffffff02191690559055600091505b600260008473ffffffffffffffffffffffffffffffffffffffff1673ffffffffffffffffffffffffffffffffffffffff16815260200190815260200160002080549050821015610cd7573373ffffffffffffffffffffffffffffffffffffffff16600260008573ffffffffffffffffffffffffffffffffffffffff1673ffffffffffffffffffffffffffffffffffffffff1681526020019081526020016000208381548110610c7d57610c7c611c41565b5b9060005260206000200160009054906101000a900473ffffffffffffffffffffffffffffffffffffffff1673ffffffffffffffffffffffffffffffffffffffff160315610cd7578180610ccf90611d1c565b925050610bcb565b8190505b6001600260008573ffffffffffffffffffffffffffffffffffffffff1673ffffffffffffffffffffffffffffffffffffffff16815260200190815260200160002080549050610d2a9190611d64565b811015610e6557600260008473ffffffffffffffffffffffffffffffffffffffff1673ffffffffffffffffffffffffffffffffffffffff168152602001908152602001600020600182610d7d9190611d98565b81548110610d8e57610d8d611c41565b5b9060005260206000200160009054906101000a900473ffffffffffffffffffffffffffffffffffffffff16600260008573ffffffffffffffffffffffffffffffffffffffff1673ffffffffffffffffffffffffffffffffffffffff1681526020019081526020016000208281548110610e0a57610e09611c41565b5b9060005260206000200160006101000a81548173ffffffffffffffffffffffffffffffffffffffff021916908373ffffffffffffffffffffffffffffffffffffffff1602179055508080610e5d90611d1c565b915050610cdb565b600260008473ffffffffffffffffffffffffffffffffffffffff1673ffffffffffffffffffffffffffffffffffffffff168152602001908152602001600020805480610eb457610eb3611dcc565b5b6001900381819060005260206000200160006101000a81549073ffffffffffffffffffffffffffffffffffffffff02191690559055505050565b610ef83384611182565b610f37576040517f08c379a0000000000000000000000000000000000000000000000000000000008152600401610f2e90611e47565b60405180910390fd5b6000808473ffffffffffffffffffffffffffffffffffffffff1673ffffffffffffffffffffffffffffffffffffffff16815260200190815260200160002060405180608001604052808481526020018381526020018573ffffffffffffffffffffffffffffffffffffffff168152602001600067ffffffffffffffff811115610fc357610fc26114e8565b5b604051908082528060200260200182016040528015610ff15781602001602082028036833780820191505090505b50815250908060018154018082558091505060019003906000526020600020906004020160009091909190915060008201518160000190816110339190611b6f565b5060208201518160010190816110499190611b6f565b5060408201518160020160006101000a81548173ffffffffffffffffffffffffffffffffffffffff021916908373ffffffffffffffffffffffffffffffffffffffff16021790555060608201518160030190805190602001906110ad9291906112a7565b505050505050565b6060600160008373ffffffffffffffffffffffffffffffffffffffff1673ffffffffffffffffffffffffffffffffffffffff16815260200190815260200160002080548060200260200160405190810160405280929190818152602001828054801561117657602002820191906000526020600020905b8160009054906101000a900473ffffffffffffffffffffffffffffffffffffffff1673ffffffffffffffffffffffffffffffffffffffff168152602001906001019080831161112c575b50505050509050919050565b6000805b600160008473ffffffffffffffffffffffffffffffffffffffff1673ffffffffffffffffffffffffffffffffffffffff1681526020019081526020016000208054905081101561129b57600160008473ffffffffffffffffffffffffffffffffffffffff1673ffffffffffffffffffffffffffffffffffffffff168152602001908152602001600020818154811061122157611220611c41565b5b9060005260206000200160009054906101000a900473ffffffffffffffffffffffffffffffffffffffff1673ffffffffffffffffffffffffffffffffffffffff168473ffffffffffffffffffffffffffffffffffffffff16036112885760019150506112a1565b808061129390611d1c565b915050611186565b60009150505b92915050565b828054828255906000526020600020908101928215611320579160200282015b8281111561131f5782518260006101000a81548173ffffffffffffffffffffffffffffffffffffffff021916908373ffffffffffffffffffffffffffffffffffffffff160217905550916020019190600101906112c7565b5b50905061132d9190611331565b5090565b5b8082111561134a576000816000905550600101611332565b5090565b6000604051905090565b600080fd5b600080fd5b600073ffffffffffffffffffffffffffffffffffffffff82169050919050565b600061138d82611362565b9050919050565b61139d81611382565b81146113a857600080fd5b50565b6000813590506113ba81611394565b92915050565b6000602082840312156113d6576113d5611358565b5b60006113e4848285016113ab565b91505092915050565b600081519050919050565b600082825260208201905092915050565b6000819050602082019050919050565b61142281611382565b82525050565b60006114348383611419565b60208301905092915050565b6000602082019050919050565b6000611458826113ed565b61146281856113f8565b935061146d83611409565b8060005b8381101561149e5781516114858882611428565b975061149083611440565b925050600181019050611471565b5085935050505092915050565b600060208201905081810360008301526114c5818461144d565b905092915050565b600080fd5b600080fd5b6000601f19601f8301169050919050565b7f4e487b7100000000000000000000000000000000000000000000000000000000600052604160045260246000fd5b611520826114d7565b810181811067ffffffffffffffff8211171561153f5761153e6114e8565b5b80604052505050565b600061155261134e565b905061155e8282611517565b919050565b600067ffffffffffffffff82111561157e5761157d6114e8565b5b611587826114d7565b9050602081019050919050565b82818337600083830152505050565b60006115b66115b184611563565b611548565b9050828152602081018484840111156115d2576115d16114d2565b5b6115dd848285611594565b509392505050565b600082601f8301126115fa576115f96114cd565b5b813561160a8482602086016115a3565b91505092915050565b6000806040838503121561162a57611629611358565b5b600083013567ffffffffffffffff8111156116485761164761135d565b5b611654858286016115e5565b925050602083013567ffffffffffffffff8111156116755761167461135d565b5b611681858286016115e5565b9150509250929050565b600081519050919050565b600082825260208201905092915050565b6000819050602082019050919050565b600081519050919050565b600082825260208201905092915050565b60005b838110156116f15780820151818401526020810190506116d6565b60008484015250505050565b6000611708826116b7565b61171281856116c2565b93506117228185602086016116d3565b61172b816114d7565b840191505092915050565b600082825260208201905092915050565b6000611752826113ed565b61175c8185611736565b935061176783611409565b8060005b8381101561179857815161177f8882611428565b975061178a83611440565b92505060018101905061176b565b5085935050505092915050565b600060808301600083015184820360008601526117c282826116fd565b915050602083015184820360208601526117dc82826116fd565b91505060408301516117f16040860182611419565b50606083015184820360608601526118098282611747565b9150508091505092915050565b600061182283836117a5565b905092915050565b6000602082019050919050565b60006118428261168b565b61184c8185611696565b93508360208202850161185e856116a7565b8060005b8581101561189a578484038952815161187b8582611816565b94506118868361182a565b925060208a01995050600181019050611862565b50829750879550505050505092915050565b600060208201905081810360008301526118c68184611837565b905092915050565b6000806000606084860312156118e7576118e6611358565b5b60006118f5868287016113ab565b935050602084013567ffffffffffffffff8111156119165761191561135d565b5b611922868287016115e5565b925050604084013567ffffffffffffffff8111156119435761194261135d565b5b61194f868287016115e5565b9150509250925092565b7f4e487b7100000000000000000000000000000000000000000000000000000000600052602260045260246000fd5b600060028204905060018216806119a057607f821691505b6020821081036119b3576119b2611959565b5b50919050565b60008190508160005260206000209050919050565b60006020601f8301049050919050565b600082821b905092915050565b600060088302611a1b7fffffffffffffffffffffffffffffffffffffffffffffffffffffffffffffffff826119de565b611a2586836119de565b95508019841693508086168417925050509392505050565b6000819050919050565b6000819050919050565b6000611a6c611a67611a6284611a3d565b611a47565b611a3d565b9050919050565b6000819050919050565b611a8683611a51565b611a9a611a9282611a73565b8484546119eb565b825550505050565b600090565b611aaf611aa2565b611aba818484611a7d565b505050565b5b81811015611ade57611ad3600082611aa7565b600181019050611ac0565b5050565b601f821115611b2357611af4816119b9565b611afd846119ce565b81016020851015611b0c578190505b611b20611b18856119ce565b830182611abf565b50505b505050565b600082821c905092915050565b6000611b4660001984600802611b28565b1980831691505092915050565b6000611b5f8383611b35565b9150826002028217905092915050565b611b78826116b7565b67ffffffffffffffff811115611b9157611b906114e8565b5b611b9b8254611988565b611ba6828285611ae2565b600060209050601f831160018114611bd95760008415611bc7578287015190505b611bd18582611b53565b865550611c39565b601f198416611be7866119b9565b60005b82811015611c0f57848901518255600182019150602085019450602081019050611bea565b86831015611c2c5784890151611c28601f891682611b35565b8355505b6001600288020188555050505b505050505050565b7f4e487b7100000000000000000000000000000000000000000000000000000000600052603260045260246000fd5b600082825260208201905092915050565b7f4e6f7420416c6c6f776564000000000000000000000000000000000000000000600082015250565b6000611cb7600b83611c70565b9150611cc282611c81565b602082019050919050565b60006020820190508181036000830152611ce681611caa565b9050919050565b7f4e487b7100000000000000000000000000000000000000000000000000000000600052601160045260246000fd5b6000611d2782611a3d565b91507fffffffffffffffffffffffffffffffffffffffffffffffffffffffffffffffff8203611d5957611d58611ced565b5b600182019050919050565b6000611d6f82611a3d565b9150611d7a83611a3d565b9250828203905081811115611d9257611d91611ced565b5b92915050565b6000611da382611a3d565b9150611dae83611a3d565b9250828201905080821115611dc657611dc5611ced565b5b92915050565b7f4e487b7100000000000000000000000000000000000000000000000000000000600052603160045260246000fd5b7f4e6f7420616c6c6f776564000000000000000000000000000000000000000000600082015250565b6000611e31600b83611c70565b9150611e3c82611dfb565b602082019050919050565b60006020820190508181036000830152611e6081611e24565b905091905056fea2646970667358221220ad3aa41ae51ba793a0bf632f57633349ca665ff586fb63467c77e1d4eba83b5064736f6c63430008120033",
  "devdoc": {
    "kind": "dev",
    "methods": {},
    "version": 1
  },
  "userdoc": {
    "kind": "user",
    "methods": {},
    "version": 1
  },
  "storageLayout": {
    "storage": [
      {
        "astId": 17,
        "contract": "contracts/MedicalRecords.sol:MedicalRecords",
        "label": "db",
        "offset": 0,
        "slot": "0",
        "type": "t_mapping(t_address,t_array(t_struct(Record)11_storage)dyn_storage)"
      },
      {
        "astId": 22,
        "contract": "contracts/MedicalRecords.sol:MedicalRecords",
        "label": "acc",
        "offset": 0,
        "slot": "1",
        "type": "t_mapping(t_address,t_array(t_address)dyn_storage)"
      },
      {
        "astId": 27,
        "contract": "contracts/MedicalRecords.sol:MedicalRecords",
        "label": "plist",
        "offset": 0,
        "slot": "2",
        "type": "t_mapping(t_address,t_array(t_address)dyn_storage)"
      }
    ],
    "types": {
      "t_address": {
        "encoding": "inplace",
        "label": "address",
        "numberOfBytes": "20"
      },
      "t_array(t_address)dyn_storage": {
        "base": "t_address",
        "encoding": "dynamic_array",
        "label": "address[]",
        "numberOfBytes": "32"
      },
      "t_array(t_struct(Record)11_storage)dyn_storage": {
        "base": "t_struct(Record)11_storage",
        "encoding": "dynamic_array",
        "label": "struct MedicalRecords.Record[]",
        "numberOfBytes": "32"
      },
      "t_mapping(t_address,t_array(t_address)dyn_storage)": {
        "encoding": "mapping",
        "key": "t_address",
        "label": "mapping(address => address[])",
        "numberOfBytes": "32",
        "value": "t_array(t_address)dyn_storage"
      },
      "t_mapping(t_address,t_array(t_struct(Record)11_storage)dyn_storage)": {
        "encoding": "mapping",
        "key": "t_address",
        "label": "mapping(address => struct MedicalRecords.Record[])",
        "numberOfBytes": "32",
        "value": "t_array(t_struct(Record)11_storage)dyn_storage"
      },
      "t_string_storage": {
        "encoding": "bytes",
        "label": "string",
        "numberOfBytes": "32"
      },
      "t_struct(Record)11_storage": {
        "encoding": "inplace",
        "label": "struct MedicalRecords.Record",
        "members": [
          {
            "astId": 3,
            "contract": "contracts/MedicalRecords.sol:MedicalRecords",
            "label": "name",
            "offset": 0,
            "slot": "0",
            "type": "t_string_storage"
          },
          {
            "astId": 5,
            "contract": "contracts/MedicalRecords.sol:MedicalRecords",
            "label": "dataHash",
            "offset": 0,
            "slot": "1",
            "type": "t_string_storage"
          },
          {
            "astId": 7,
            "contract": "contracts/MedicalRecords.sol:MedicalRecords",
            "label": "owner",
            "offset": 0,
            "slot": "2",
            "type": "t_address"
          },
          {
            "astId": 10,
            "contract": "contracts/MedicalRecords.sol:MedicalRecords",
            "label": "allowed",
            "offset": 0,
            "slot": "3",
            "type": "t_array(t_address)dyn_storage"
          }
        ],
        "numberOfBytes": "128"
      }
    }
  }
}